{
  "_format": "hh-sol-artifact-1",
  "contractName": "Voting",
  "sourceName": "contracts/Voting.sol",
  "abi": [
    {
      "anonymous": false,
      "inputs": [
        {
          "indexed": true,
          "internalType": "address",
          "name": "previousOwner",
          "type": "address"
        },
        {
          "indexed": true,
          "internalType": "address",
          "name": "newOwner",
          "type": "address"
        }
      ],
      "name": "OwnershipTransferred",
      "type": "event"
    },
    {
      "anonymous": false,
      "inputs": [
        {
          "indexed": false,
          "internalType": "uint256",
          "name": "proposalId",
          "type": "uint256"
        }
      ],
      "name": "ProposalRegistered",
      "type": "event"
    },
    {
      "anonymous": false,
      "inputs": [
        {
          "indexed": false,
          "internalType": "address",
          "name": "voter",
          "type": "address"
        },
        {
          "indexed": false,
          "internalType": "uint256",
          "name": "proposalId",
          "type": "uint256"
        }
      ],
      "name": "Voted",
      "type": "event"
    },
    {
      "anonymous": false,
      "inputs": [
        {
          "indexed": false,
          "internalType": "address",
          "name": "voterAddress",
          "type": "address"
        }
      ],
      "name": "VoterRegistered",
      "type": "event"
    },
    {
      "anonymous": false,
      "inputs": [
        {
          "indexed": false,
          "internalType": "enum Voting.WorkflowStatus",
          "name": "previousStatus",
          "type": "uint8"
        },
        {
          "indexed": false,
          "internalType": "enum Voting.WorkflowStatus",
          "name": "newStatus",
          "type": "uint8"
        }
      ],
      "name": "WorkflowStatusChange",
      "type": "event"
    },
    {
      "inputs": [
        {
          "internalType": "string",
          "name": "_desc",
          "type": "string"
        }
      ],
      "name": "addProposal",
      "outputs": [],
      "stateMutability": "nonpayable",
      "type": "function"
    },
    {
      "inputs": [
        {
          "internalType": "address",
          "name": "_addr",
          "type": "address"
        }
      ],
      "name": "addVoter",
      "outputs": [],
      "stateMutability": "nonpayable",
      "type": "function"
    },
    {
      "inputs": [],
      "name": "endProposalsRegistering",
      "outputs": [],
      "stateMutability": "nonpayable",
      "type": "function"
    },
    {
      "inputs": [],
      "name": "endVotingSession",
      "outputs": [],
      "stateMutability": "nonpayable",
      "type": "function"
    },
    {
      "inputs": [
        {
          "internalType": "uint256",
          "name": "_id",
          "type": "uint256"
        }
      ],
      "name": "getOneProposal",
      "outputs": [
        {
          "components": [
            {
              "internalType": "string",
              "name": "description",
              "type": "string"
            },
            {
              "internalType": "uint256",
              "name": "voteCount",
              "type": "uint256"
            }
          ],
          "internalType": "struct Voting.Proposal",
          "name": "",
          "type": "tuple"
        }
      ],
      "stateMutability": "view",
      "type": "function"
    },
    {
      "inputs": [],
      "name": "getProposals",
      "outputs": [
        {
          "components": [
            {
              "internalType": "string",
              "name": "description",
              "type": "string"
            },
            {
              "internalType": "uint256",
              "name": "voteCount",
              "type": "uint256"
            }
          ],
          "internalType": "struct Voting.Proposal[]",
          "name": "",
          "type": "tuple[]"
        }
      ],
      "stateMutability": "view",
      "type": "function"
    },
    {
      "inputs": [
        {
          "internalType": "address",
          "name": "_addr",
          "type": "address"
        }
      ],
      "name": "getVoter",
      "outputs": [
        {
          "components": [
            {
              "internalType": "bool",
              "name": "isRegistered",
              "type": "bool"
            },
            {
              "internalType": "bool",
              "name": "hasVoted",
              "type": "bool"
            },
            {
              "internalType": "uint256",
              "name": "votedProposalId",
              "type": "uint256"
            }
          ],
          "internalType": "struct Voting.Voter",
          "name": "",
          "type": "tuple"
        }
      ],
      "stateMutability": "view",
      "type": "function"
    },
    {
      "inputs": [],
      "name": "getVotersAddress",
      "outputs": [
        {
          "internalType": "address[]",
          "name": "",
          "type": "address[]"
        }
      ],
      "stateMutability": "view",
      "type": "function"
    },
    {
      "inputs": [],
      "name": "owner",
      "outputs": [
        {
          "internalType": "address",
          "name": "",
          "type": "address"
        }
      ],
      "stateMutability": "view",
      "type": "function"
    },
    {
      "inputs": [],
      "name": "renounceOwnership",
      "outputs": [],
      "stateMutability": "nonpayable",
      "type": "function"
    },
    {
      "inputs": [
        {
          "internalType": "uint256",
          "name": "_id",
          "type": "uint256"
        }
      ],
      "name": "setVote",
      "outputs": [],
      "stateMutability": "nonpayable",
      "type": "function"
    },
    {
      "inputs": [],
      "name": "startProposalsRegistering",
      "outputs": [],
      "stateMutability": "nonpayable",
      "type": "function"
    },
    {
      "inputs": [],
      "name": "startVotingSession",
      "outputs": [],
      "stateMutability": "nonpayable",
      "type": "function"
    },
    {
      "inputs": [],
      "name": "tallyVotes",
      "outputs": [],
      "stateMutability": "nonpayable",
      "type": "function"
    },
    {
      "inputs": [
        {
          "internalType": "address",
          "name": "newOwner",
          "type": "address"
        }
      ],
      "name": "transferOwnership",
      "outputs": [],
      "stateMutability": "nonpayable",
      "type": "function"
    },
    {
      "inputs": [],
      "name": "winningProposalID",
      "outputs": [
        {
          "internalType": "uint256",
          "name": "",
          "type": "uint256"
        }
      ],
      "stateMutability": "view",
      "type": "function"
    },
    {
      "inputs": [],
      "name": "workflowStatus",
      "outputs": [
        {
          "internalType": "enum Voting.WorkflowStatus",
          "name": "",
          "type": "uint8"
        }
      ],
      "stateMutability": "view",
      "type": "function"
    }
  ],
  "bytecode": "0x60806040523480156200001157600080fd5b5062000032620000266200003860201b60201c565b6200004060201b60201c565b62000104565b600033905090565b60008060009054906101000a900473ffffffffffffffffffffffffffffffffffffffff169050816000806101000a81548173ffffffffffffffffffffffffffffffffffffffff021916908373ffffffffffffffffffffffffffffffffffffffff1602179055508173ffffffffffffffffffffffffffffffffffffffff168173ffffffffffffffffffffffffffffffffffffffff167f8be0079c531659141344cd1fd0a4f28419497f9722a3daafe3b4186f6b6457e060405160405180910390a35050565b61292380620001146000396000f3fe608060405234801561001057600080fd5b506004361061010b5760003560e01c8063a7bfab16116100a2578063d4f50f9811610071578063d4f50f9814610222578063e19f154114610252578063ee74c67814610270578063f2fde38b1461027a578063f4ab9adf146102965761010b565b8063a7bfab16146101e6578063bdc01431146101f0578063c7038a4e1461020e578063c88af42f146102185761010b565b8063715018a6116100de578063715018a6146101705780638da5cb5b1461017a578063a1edffa214610198578063a2788cce146101b65761010b565b8063230796ae146101105780632fdae3c51461012c578063378a21781461014857806362564c4814610152575b600080fd5b61012a6004803603810190610125919061171e565b6102b2565b005b610146600480360381019061014191906117b0565b6105ad565b005b610150610830565b005b61015a61099d565b604051610167919061199b565b60405180910390f35b610178610b27565b005b610182610b3b565b60405161018f91906119fe565b60405180910390f35b6101a0610b64565b6040516101ad9190611a90565b60405180910390f35b6101d060048036038101906101cb919061171e565b610b77565b6040516101dd9190611ae8565b60405180910390f35b6101ee610cde565b005b6101f8610dc4565b6040516102059190611b19565b60405180910390f35b610216610dca565b005b610220610f45565b005b61023c60048036038101906102379190611b60565b61102a565b6040516102499190611bea565b60405180910390f35b61025a611152565b6040516102679190611cc3565b60405180910390f35b6102786111e0565b005b610294600480360381019061028f9190611b60565b6112c6565b005b6102b060048036038101906102ab9190611b60565b611349565b005b600460003373ffffffffffffffffffffffffffffffffffffffff1673ffffffffffffffffffffffffffffffffffffffff16815260200190815260200160002060000160009054906101000a900460ff16610341576040517f08c379a000000000000000000000000000000000000000000000000000000000815260040161033890611d42565b60405180910390fd5b6003600581111561035557610354611a19565b5b600260009054906101000a900460ff16600581111561037757610376611a19565b5b146103b7576040517f08c379a00000000000000000000000000000000000000000000000000000000081526004016103ae90611dd4565b60405180910390fd5b60011515600460003373ffffffffffffffffffffffffffffffffffffffff1673ffffffffffffffffffffffffffffffffffffffff16815260200190815260200160002060000160019054906101000a900460ff1615150361044d576040517f08c379a000000000000000000000000000000000000000000000000000000000815260040161044490611e40565b60405180910390fd5b6003805490508110610494576040517f08c379a000000000000000000000000000000000000000000000000000000000815260040161048b90611eac565b60405180910390fd5b80600460003373ffffffffffffffffffffffffffffffffffffffff1673ffffffffffffffffffffffffffffffffffffffff168152602001908152602001600020600101819055506001600460003373ffffffffffffffffffffffffffffffffffffffff1673ffffffffffffffffffffffffffffffffffffffff16815260200190815260200160002060000160016101000a81548160ff0219169083151502179055506003818154811061054a57610549611ecc565b5b9060005260206000209060020201600101600081548092919061056c90611f2a565b91905055507f4d99b957a2bc29a30ebd96a7be8e68fe50a3c701db28a91436490b7d53870ca433826040516105a2929190611f72565b60405180910390a150565b600460003373ffffffffffffffffffffffffffffffffffffffff1673ffffffffffffffffffffffffffffffffffffffff16815260200190815260200160002060000160009054906101000a900460ff1661063c576040517f08c379a000000000000000000000000000000000000000000000000000000000815260040161063390611d42565b60405180910390fd5b600160058111156106505761064f611a19565b5b600260009054906101000a900460ff16600581111561067257610671611a19565b5b146106b2576040517f08c379a00000000000000000000000000000000000000000000000000000000081526004016106a990611fe7565b60405180910390fd5b6040516020016106c19061202d565b6040516020818303038152906040528051906020012082826040516020016106ea929190612089565b6040516020818303038152906040528051906020012003610740576040517f08c379a00000000000000000000000000000000000000000000000000000000081526004016107379061211f565b60405180910390fd5b61074861169f565b82828080601f016020809104026020016040519081016040528093929190818152602001838380828437600081840152601f19601f820116905080830192505050505050508160000181905250600381908060018154018082558091505060019003906000526020600020906002020160009091909190915060008201518160000190816107d6919061237a565b506020820151816001015550507f92e393e9b54e2f801d3ea4beb0c5e71a21cc34a5d34b77d0fb8a3aa1650dc18f6001600380549050610816919061244c565b6040516108239190611b19565b60405180910390a1505050565b610838611555565b6004600581111561084c5761084b611a19565b5b600260009054906101000a900460ff16600581111561086e5761086d611a19565b5b146108ae576040517f08c379a00000000000000000000000000000000000000000000000000000000081526004016108a5906124f2565b60405180910390fd5b600080600090505b60038054905081101561092c57600382815481106108d7576108d6611ecc565b5b906000526020600020906002020160010154600382815481106108fd576108fc611ecc565b5b9060005260206000209060020201600101541115610919578091505b808061092490611f2a565b9150506108b6565b50806001819055506005600260006101000a81548160ff0219169083600581111561095a57610959611a19565b5b02179055507f0a97a4ee45751e2abf3e4fc8946939630b11b371ea8ae39ccdc3056e98f5cc3f60046005604051610992929190612512565b60405180910390a150565b6060600460003373ffffffffffffffffffffffffffffffffffffffff1673ffffffffffffffffffffffffffffffffffffffff16815260200190815260200160002060000160009054906101000a900460ff16610a2e576040517f08c379a0000000000000000000000000000000000000000000000000000000008152600401610a2590611d42565b60405180910390fd5b6003805480602002602001604051908101604052809291908181526020016000905b82821015610b1e5783829060005260206000209060020201604051806040016040529081600082018054610a839061219d565b80601f0160208091040260200160405190810160405280929190818152602001828054610aaf9061219d565b8015610afc5780601f10610ad157610100808354040283529160200191610afc565b820191906000526020600020905b815481529060010190602001808311610adf57829003601f168201915b5050505050815260200160018201548152505081526020019060010190610a50565b50505050905090565b610b2f611555565b610b3960006115d3565b565b60008060009054906101000a900473ffffffffffffffffffffffffffffffffffffffff16905090565b600260009054906101000a900460ff1681565b610b7f61169f565b600460003373ffffffffffffffffffffffffffffffffffffffff1673ffffffffffffffffffffffffffffffffffffffff16815260200190815260200160002060000160009054906101000a900460ff16610c0e576040517f08c379a0000000000000000000000000000000000000000000000000000000008152600401610c0590611d42565b60405180910390fd5b60038281548110610c2257610c21611ecc565b5b9060005260206000209060020201604051806040016040529081600082018054610c4b9061219d565b80601f0160208091040260200160405190810160405280929190818152602001828054610c779061219d565b8015610cc45780601f10610c9957610100808354040283529160200191610cc4565b820191906000526020600020905b815481529060010190602001808311610ca757829003601f168201915b505050505081526020016001820154815250509050919050565b610ce6611555565b60036005811115610cfa57610cf9611a19565b5b600260009054906101000a900460ff166005811115610d1c57610d1b611a19565b5b14610d5c576040517f08c379a0000000000000000000000000000000000000000000000000000000008152600401610d5390611dd4565b60405180910390fd5b6004600260006101000a81548160ff02191690836005811115610d8257610d81611a19565b5b02179055507f0a97a4ee45751e2abf3e4fc8946939630b11b371ea8ae39ccdc3056e98f5cc3f60036004604051610dba929190612512565b60405180910390a1565b60015481565b610dd2611555565b60006005811115610de657610de5611a19565b5b600260009054906101000a900460ff166005811115610e0857610e07611a19565b5b14610e48576040517f08c379a0000000000000000000000000000000000000000000000000000000008152600401610e3f906125ad565b60405180910390fd5b6001600260006101000a81548160ff02191690836005811115610e6e57610e6d611a19565b5b0217905550610e7b61169f565b6040518060400160405280600781526020017f47454e4553495300000000000000000000000000000000000000000000000000815250816000018190525060038190806001815401808255809150506001900390600052602060002090600202016000909190919091506000820151816000019081610efa919061237a565b506020820151816001015550507f0a97a4ee45751e2abf3e4fc8946939630b11b371ea8ae39ccdc3056e98f5cc3f60006001604051610f3a929190612512565b60405180910390a150565b610f4d611555565b60016005811115610f6157610f60611a19565b5b600260009054906101000a900460ff166005811115610f8357610f82611a19565b5b14610fc3576040517f08c379a0000000000000000000000000000000000000000000000000000000008152600401610fba9061263f565b60405180910390fd5b60028060006101000a81548160ff02191690836005811115610fe857610fe7611a19565b5b02179055507f0a97a4ee45751e2abf3e4fc8946939630b11b371ea8ae39ccdc3056e98f5cc3f60016002604051611020929190612512565b60405180910390a1565b6110326116b9565b600460003373ffffffffffffffffffffffffffffffffffffffff1673ffffffffffffffffffffffffffffffffffffffff16815260200190815260200160002060000160009054906101000a900460ff166110c1576040517f08c379a00000000000000000000000000000000000000000000000000000000081526004016110b890611d42565b60405180910390fd5b600460008373ffffffffffffffffffffffffffffffffffffffff1673ffffffffffffffffffffffffffffffffffffffff1681526020019081526020016000206040518060600160405290816000820160009054906101000a900460ff161515151581526020016000820160019054906101000a900460ff161515151581526020016001820154815250509050919050565b606060058054806020026020016040519081016040528092919081815260200182805480156111d657602002820191906000526020600020905b8160009054906101000a900473ffffffffffffffffffffffffffffffffffffffff1673ffffffffffffffffffffffffffffffffffffffff168152602001906001019080831161118c575b5050505050905090565b6111e8611555565b600260058111156111fc576111fb611a19565b5b600260009054906101000a900460ff16600581111561121e5761121d611a19565b5b1461125e576040517f08c379a0000000000000000000000000000000000000000000000000000000008152600401611255906126d1565b60405180910390fd5b6003600260006101000a81548160ff0219169083600581111561128457611283611a19565b5b02179055507f0a97a4ee45751e2abf3e4fc8946939630b11b371ea8ae39ccdc3056e98f5cc3f600260036040516112bc929190612512565b60405180910390a1565b6112ce611555565b600073ffffffffffffffffffffffffffffffffffffffff168173ffffffffffffffffffffffffffffffffffffffff160361133d576040517f08c379a000000000000000000000000000000000000000000000000000000000815260040161133490612763565b60405180910390fd5b611346816115d3565b50565b611351611555565b6000600581111561136557611364611a19565b5b600260009054906101000a900460ff16600581111561138757611386611a19565b5b146113c7576040517f08c379a00000000000000000000000000000000000000000000000000000000081526004016113be906127f5565b60405180910390fd5b60011515600460008373ffffffffffffffffffffffffffffffffffffffff1673ffffffffffffffffffffffffffffffffffffffff16815260200190815260200160002060000160009054906101000a900460ff1615150361145d576040517f08c379a000000000000000000000000000000000000000000000000000000000815260040161145490612861565b60405180910390fd5b6001600460008373ffffffffffffffffffffffffffffffffffffffff1673ffffffffffffffffffffffffffffffffffffffff16815260200190815260200160002060000160006101000a81548160ff0219169083151502179055506005819080600181540180825580915050600190039060005260206000200160009091909190916101000a81548173ffffffffffffffffffffffffffffffffffffffff021916908373ffffffffffffffffffffffffffffffffffffffff1602179055507fb6be2187d059cc2a55fe29e0e503b566e1e0f8c8780096e185429350acffd3dd8160405161154a91906119fe565b60405180910390a150565b61155d611697565b73ffffffffffffffffffffffffffffffffffffffff1661157b610b3b565b73ffffffffffffffffffffffffffffffffffffffff16146115d1576040517f08c379a00000000000000000000000000000000000000000000000000000000081526004016115c8906128cd565b60405180910390fd5b565b60008060009054906101000a900473ffffffffffffffffffffffffffffffffffffffff169050816000806101000a81548173ffffffffffffffffffffffffffffffffffffffff021916908373ffffffffffffffffffffffffffffffffffffffff1602179055508173ffffffffffffffffffffffffffffffffffffffff168173ffffffffffffffffffffffffffffffffffffffff167f8be0079c531659141344cd1fd0a4f28419497f9722a3daafe3b4186f6b6457e060405160405180910390a35050565b600033905090565b604051806040016040528060608152602001600081525090565b6040518060600160405280600015158152602001600015158152602001600081525090565b600080fd5b600080fd5b6000819050919050565b6116fb816116e8565b811461170657600080fd5b50565b600081359050611718816116f2565b92915050565b600060208284031215611734576117336116de565b5b600061174284828501611709565b91505092915050565b600080fd5b600080fd5b600080fd5b60008083601f8401126117705761176f61174b565b5b8235905067ffffffffffffffff81111561178d5761178c611750565b5b6020830191508360018202830111156117a9576117a8611755565b5b9250929050565b600080602083850312156117c7576117c66116de565b5b600083013567ffffffffffffffff8111156117e5576117e46116e3565b5b6117f18582860161175a565b92509250509250929050565b600081519050919050565b600082825260208201905092915050565b6000819050602082019050919050565b600081519050919050565b600082825260208201905092915050565b60005b83811015611863578082015181840152602081019050611848565b60008484015250505050565b6000601f19601f8301169050919050565b600061188b82611829565b6118958185611834565b93506118a5818560208601611845565b6118ae8161186f565b840191505092915050565b6118c2816116e8565b82525050565b600060408301600083015184820360008601526118e58282611880565b91505060208301516118fa60208601826118b9565b508091505092915050565b600061191183836118c8565b905092915050565b6000602082019050919050565b6000611931826117fd565b61193b8185611808565b93508360208202850161194d85611819565b8060005b85811015611989578484038952815161196a8582611905565b945061197583611919565b925060208a01995050600181019050611951565b50829750879550505050505092915050565b600060208201905081810360008301526119b58184611926565b905092915050565b600073ffffffffffffffffffffffffffffffffffffffff82169050919050565b60006119e8826119bd565b9050919050565b6119f8816119dd565b82525050565b6000602082019050611a1360008301846119ef565b92915050565b7f4e487b7100000000000000000000000000000000000000000000000000000000600052602160045260246000fd5b60068110611a5957611a58611a19565b5b50565b6000819050611a6a82611a48565b919050565b6000611a7a82611a5c565b9050919050565b611a8a81611a6f565b82525050565b6000602082019050611aa56000830184611a81565b92915050565b60006040830160008301518482036000860152611ac88282611880565b9150506020830151611add60208601826118b9565b508091505092915050565b60006020820190508181036000830152611b028184611aab565b905092915050565b611b13816116e8565b82525050565b6000602082019050611b2e6000830184611b0a565b92915050565b611b3d816119dd565b8114611b4857600080fd5b50565b600081359050611b5a81611b34565b92915050565b600060208284031215611b7657611b756116de565b5b6000611b8484828501611b4b565b91505092915050565b60008115159050919050565b611ba281611b8d565b82525050565b606082016000820151611bbe6000850182611b99565b506020820151611bd16020850182611b99565b506040820151611be460408501826118b9565b50505050565b6000606082019050611bff6000830184611ba8565b92915050565b600081519050919050565b600082825260208201905092915050565b6000819050602082019050919050565b611c3a816119dd565b82525050565b6000611c4c8383611c31565b60208301905092915050565b6000602082019050919050565b6000611c7082611c05565b611c7a8185611c10565b9350611c8583611c21565b8060005b83811015611cb6578151611c9d8882611c40565b9750611ca883611c58565b925050600181019050611c89565b5085935050505092915050565b60006020820190508181036000830152611cdd8184611c65565b905092915050565b600082825260208201905092915050565b7f596f75277265206e6f74206120766f7465720000000000000000000000000000600082015250565b6000611d2c601283611ce5565b9150611d3782611cf6565b602082019050919050565b60006020820190508181036000830152611d5b81611d1f565b9050919050565b7f566f74696e672073657373696f6e20686176656e74207374617274656420796560008201527f7400000000000000000000000000000000000000000000000000000000000000602082015250565b6000611dbe602183611ce5565b9150611dc982611d62565b604082019050919050565b60006020820190508181036000830152611ded81611db1565b9050919050565b7f596f75206861766520616c726561647920766f74656400000000000000000000600082015250565b6000611e2a601683611ce5565b9150611e3582611df4565b602082019050919050565b60006020820190508181036000830152611e5981611e1d565b9050919050565b7f50726f706f73616c206e6f7420666f756e640000000000000000000000000000600082015250565b6000611e96601283611ce5565b9150611ea182611e60565b602082019050919050565b60006020820190508181036000830152611ec581611e89565b9050919050565b7f4e487b7100000000000000000000000000000000000000000000000000000000600052603260045260246000fd5b7f4e487b7100000000000000000000000000000000000000000000000000000000600052601160045260246000fd5b6000611f35826116e8565b91507fffffffffffffffffffffffffffffffffffffffffffffffffffffffffffffffff8203611f6757611f66611efb565b5b600182019050919050565b6000604082019050611f8760008301856119ef565b611f946020830184611b0a565b9392505050565b7f50726f706f73616c7320617265206e6f7420616c6c6f77656420796574000000600082015250565b6000611fd1601d83611ce5565b9150611fdc82611f9b565b602082019050919050565b6000602082019050818103600083015261200081611fc4565b9050919050565b50565b6000612017600083611ce5565b915061202282612007565b600082019050919050565b600060208201905081810360008301526120468161200a565b9050919050565b82818337600083830152505050565b60006120688385611ce5565b935061207583858461204d565b61207e8361186f565b840190509392505050565b600060208201905081810360008301526120a481848661205c565b90509392505050565b7f566f7573206e6520706f7576657a20706173206e65207269656e2070726f706f60008201527f7365720000000000000000000000000000000000000000000000000000000000602082015250565b6000612109602383611ce5565b9150612114826120ad565b604082019050919050565b60006020820190508181036000830152612138816120fc565b9050919050565b7f4e487b7100000000000000000000000000000000000000000000000000000000600052604160045260246000fd5b7f4e487b7100000000000000000000000000000000000000000000000000000000600052602260045260246000fd5b600060028204905060018216806121b557607f821691505b6020821081036121c8576121c761216e565b5b50919050565b60008190508160005260206000209050919050565b60006020601f8301049050919050565b600082821b905092915050565b6000600883026122307fffffffffffffffffffffffffffffffffffffffffffffffffffffffffffffffff826121f3565b61223a86836121f3565b95508019841693508086168417925050509392505050565b6000819050919050565b600061227761227261226d846116e8565b612252565b6116e8565b9050919050565b6000819050919050565b6122918361225c565b6122a561229d8261227e565b848454612200565b825550505050565b600090565b6122ba6122ad565b6122c5818484612288565b505050565b5b818110156122e9576122de6000826122b2565b6001810190506122cb565b5050565b601f82111561232e576122ff816121ce565b612308846121e3565b81016020851015612317578190505b61232b612323856121e3565b8301826122ca565b50505b505050565b600082821c905092915050565b600061235160001984600802612333565b1980831691505092915050565b600061236a8383612340565b9150826002028217905092915050565b61238382611829565b67ffffffffffffffff81111561239c5761239b61213f565b5b6123a6825461219d565b6123b18282856122ed565b600060209050601f8311600181146123e457600084156123d2578287015190505b6123dc858261235e565b865550612444565b601f1984166123f2866121ce565b60005b8281101561241a578489015182556001820191506020850194506020810190506123f5565b868310156124375784890151612433601f891682612340565b8355505b6001600288020188555050505b505050505050565b6000612457826116e8565b9150612462836116e8565b925082820390508181111561247a57612479611efb565b5b92915050565b7f43757272656e7420737461747573206973206e6f7420766f74696e672073657360008201527f73696f6e20656e64656400000000000000000000000000000000000000000000602082015250565b60006124dc602a83611ce5565b91506124e782612480565b604082019050919050565b6000602082019050818103600083015261250b816124cf565b9050919050565b60006040820190506125276000830185611a81565b6125346020830184611a81565b9392505050565b7f5265676973746572696e672070726f706f73616c732063616e7420626520737460008201527f6172746564206e6f770000000000000000000000000000000000000000000000602082015250565b6000612597602983611ce5565b91506125a28261253b565b604082019050919050565b600060208201905081810360008301526125c68161258a565b9050919050565b7f5265676973746572696e672070726f706f73616c7320686176656e742073746160008201527f7274656420796574000000000000000000000000000000000000000000000000602082015250565b6000612629602883611ce5565b9150612634826125cd565b604082019050919050565b600060208201905081810360008301526126588161261c565b9050919050565b7f5265676973746572696e672070726f706f73616c73207068617365206973206e60008201527f6f742066696e6973686564000000000000000000000000000000000000000000602082015250565b60006126bb602b83611ce5565b91506126c68261265f565b604082019050919050565b600060208201905081810360008301526126ea816126ae565b9050919050565b7f4f776e61626c653a206e6577206f776e657220697320746865207a65726f206160008201527f6464726573730000000000000000000000000000000000000000000000000000602082015250565b600061274d602683611ce5565b9150612758826126f1565b604082019050919050565b6000602082019050818103600083015261277c81612740565b9050919050565b7f566f7465727320726567697374726174696f6e206973206e6f74206f70656e2060008201527f7965740000000000000000000000000000000000000000000000000000000000602082015250565b60006127df602383611ce5565b91506127ea82612783565b604082019050919050565b6000602082019050818103600083015261280e816127d2565b9050919050565b7f416c726561647920726567697374657265640000000000000000000000000000600082015250565b600061284b601283611ce5565b915061285682612815565b602082019050919050565b6000602082019050818103600083015261287a8161283e565b9050919050565b7f4f776e61626c653a2063616c6c6572206973206e6f7420746865206f776e6572600082015250565b60006128b7602083611ce5565b91506128c282612881565b602082019050919050565b600060208201905081810360008301526128e6816128aa565b905091905056fea2646970667358221220d59ccd7fa13fe140cff4021dbf0ef708f989a17f898af1b9b6bd43d71bceeca064736f6c63430008110033",
  "linkReferences": {},
  "deployedLinkReferences": {}
}