{
  "_format": "hh-sol-artifact-1",
  "contractName": "Voting",
  "sourceName": "contracts/Voting.sol",
  "abi": [
    {
      "anonymous": false,
      "inputs": [
        {
          "indexed": true,
          "internalType": "address",
          "name": "previousOwner",
          "type": "address"
        },
        {
          "indexed": true,
          "internalType": "address",
          "name": "newOwner",
          "type": "address"
        }
      ],
      "name": "OwnershipTransferred",
      "type": "event"
    },
    {
      "anonymous": false,
      "inputs": [
        {
          "indexed": false,
          "internalType": "uint256",
          "name": "proposalId",
          "type": "uint256"
        }
      ],
      "name": "ProposalRegistered",
      "type": "event"
    },
    {
      "anonymous": false,
      "inputs": [
        {
          "indexed": false,
          "internalType": "address",
          "name": "voter",
          "type": "address"
        },
        {
          "indexed": false,
          "internalType": "uint256",
          "name": "proposalId",
          "type": "uint256"
        }
      ],
      "name": "Voted",
      "type": "event"
    },
    {
      "anonymous": false,
      "inputs": [
        {
          "indexed": false,
          "internalType": "address",
          "name": "voterAddress",
          "type": "address"
        }
      ],
      "name": "VoterRegistered",
      "type": "event"
    },
    {
      "anonymous": false,
      "inputs": [
        {
          "indexed": false,
          "internalType": "enum Voting.WorkflowStatus",
          "name": "previousStatus",
          "type": "uint8"
        },
        {
          "indexed": false,
          "internalType": "enum Voting.WorkflowStatus",
          "name": "newStatus",
          "type": "uint8"
        }
      ],
      "name": "WorkflowStatusChange",
      "type": "event"
    },
    {
      "inputs": [
        {
          "internalType": "string",
          "name": "_desc",
          "type": "string"
        }
      ],
      "name": "addProposal",
      "outputs": [],
      "stateMutability": "nonpayable",
      "type": "function"
    },
    {
      "inputs": [
        {
          "internalType": "address",
          "name": "_addr",
          "type": "address"
        }
      ],
      "name": "addVoter",
      "outputs": [],
      "stateMutability": "nonpayable",
      "type": "function"
    },
    {
      "inputs": [],
      "name": "endProposalsRegistering",
      "outputs": [],
      "stateMutability": "nonpayable",
      "type": "function"
    },
    {
      "inputs": [],
      "name": "endVotingSession",
      "outputs": [],
      "stateMutability": "nonpayable",
      "type": "function"
    },
    {
      "inputs": [
        {
          "internalType": "uint256",
          "name": "_id",
          "type": "uint256"
        }
      ],
      "name": "getOneProposal",
      "outputs": [
        {
          "components": [
            {
              "internalType": "string",
              "name": "description",
              "type": "string"
            },
            {
              "internalType": "uint256",
              "name": "voteCount",
              "type": "uint256"
            }
          ],
          "internalType": "struct Voting.Proposal",
          "name": "",
          "type": "tuple"
        }
      ],
      "stateMutability": "view",
      "type": "function"
    },
    {
      "inputs": [],
      "name": "getProposals",
      "outputs": [
        {
          "components": [
            {
              "internalType": "string",
              "name": "description",
              "type": "string"
            },
            {
              "internalType": "uint256",
              "name": "voteCount",
              "type": "uint256"
            }
          ],
          "internalType": "struct Voting.Proposal[]",
          "name": "",
          "type": "tuple[]"
        }
      ],
      "stateMutability": "view",
      "type": "function"
    },
    {
      "inputs": [
        {
          "internalType": "address",
          "name": "_addr",
          "type": "address"
        }
      ],
      "name": "getVoter",
      "outputs": [
        {
          "components": [
            {
              "internalType": "bool",
              "name": "isRegistered",
              "type": "bool"
            },
            {
              "internalType": "bool",
              "name": "hasVoted",
              "type": "bool"
            },
            {
              "internalType": "uint256",
              "name": "votedProposalId",
              "type": "uint256"
            }
          ],
          "internalType": "struct Voting.Voter",
          "name": "",
          "type": "tuple"
        }
      ],
      "stateMutability": "view",
      "type": "function"
    },
    {
      "inputs": [],
      "name": "owner",
      "outputs": [
        {
          "internalType": "address",
          "name": "",
          "type": "address"
        }
      ],
      "stateMutability": "view",
      "type": "function"
    },
    {
      "inputs": [],
      "name": "renounceOwnership",
      "outputs": [],
      "stateMutability": "nonpayable",
      "type": "function"
    },
    {
      "inputs": [
        {
          "internalType": "uint256",
          "name": "_id",
          "type": "uint256"
        }
      ],
      "name": "setVote",
      "outputs": [],
      "stateMutability": "nonpayable",
      "type": "function"
    },
    {
      "inputs": [],
      "name": "startProposalsRegistering",
      "outputs": [],
      "stateMutability": "nonpayable",
      "type": "function"
    },
    {
      "inputs": [],
      "name": "startVotingSession",
      "outputs": [],
      "stateMutability": "nonpayable",
      "type": "function"
    },
    {
      "inputs": [],
      "name": "tallyVotes",
      "outputs": [],
      "stateMutability": "nonpayable",
      "type": "function"
    },
    {
      "inputs": [
        {
          "internalType": "address",
          "name": "newOwner",
          "type": "address"
        }
      ],
      "name": "transferOwnership",
      "outputs": [],
      "stateMutability": "nonpayable",
      "type": "function"
    },
    {
      "inputs": [],
      "name": "winningProposalID",
      "outputs": [
        {
          "internalType": "uint256",
          "name": "",
          "type": "uint256"
        }
      ],
      "stateMutability": "view",
      "type": "function"
    },
    {
      "inputs": [],
      "name": "workflowStatus",
      "outputs": [
        {
          "internalType": "enum Voting.WorkflowStatus",
          "name": "",
          "type": "uint8"
        }
      ],
      "stateMutability": "view",
      "type": "function"
    }
  ],
  "bytecode": "0x60806040523480156200001157600080fd5b5062000032620000266200003860201b60201c565b6200004060201b60201c565b62000104565b600033905090565b60008060009054906101000a900473ffffffffffffffffffffffffffffffffffffffff169050816000806101000a81548173ffffffffffffffffffffffffffffffffffffffff021916908373ffffffffffffffffffffffffffffffffffffffff1602179055508173ffffffffffffffffffffffffffffffffffffffff168173ffffffffffffffffffffffffffffffffffffffff167f8be0079c531659141344cd1fd0a4f28419497f9722a3daafe3b4186f6b6457e060405160405180910390a35050565b61262180620001146000396000f3fe608060405234801561001057600080fd5b50600436106101005760003560e01c8063a7bfab1611610097578063d4f50f9811610066578063d4f50f9814610217578063ee74c67814610247578063f2fde38b14610251578063f4ab9adf1461026d57610100565b8063a7bfab16146101db578063bdc01431146101e5578063c7038a4e14610203578063c88af42f1461020d57610100565b8063715018a6116100d3578063715018a6146101655780638da5cb5b1461016f578063a1edffa21461018d578063a2788cce146101ab57610100565b8063230796ae146101055780632fdae3c514610121578063378a21781461013d57806362564c4814610147575b600080fd5b61011f600480360381019061011a919061158e565b610289565b005b61013b60048036038101906101369190611620565b610584565b005b610145610807565b005b61014f6108fe565b60405161015c919061180b565b60405180910390f35b61016d610a88565b005b610177610a9c565b604051610184919061186e565b60405180910390f35b610195610ac5565b6040516101a29190611900565b60405180910390f35b6101c560048036038101906101c0919061158e565b610ad8565b6040516101d29190611958565b60405180910390f35b6101e3610c3f565b005b6101ed610d25565b6040516101fa9190611989565b60405180910390f35b61020b610d2b565b005b610215610ea6565b005b610231600480360381019061022c91906119d0565b610f8b565b60405161023e9190611a5a565b60405180910390f35b61024f6110b3565b005b61026b600480360381019061026691906119d0565b611199565b005b610287600480360381019061028291906119d0565b61121c565b005b600460003373ffffffffffffffffffffffffffffffffffffffff1673ffffffffffffffffffffffffffffffffffffffff16815260200190815260200160002060000160009054906101000a900460ff16610318576040517f08c379a000000000000000000000000000000000000000000000000000000000815260040161030f90611ad2565b60405180910390fd5b6003600581111561032c5761032b611889565b5b600260009054906101000a900460ff16600581111561034e5761034d611889565b5b1461038e576040517f08c379a000000000000000000000000000000000000000000000000000000000815260040161038590611b64565b60405180910390fd5b60011515600460003373ffffffffffffffffffffffffffffffffffffffff1673ffffffffffffffffffffffffffffffffffffffff16815260200190815260200160002060000160019054906101000a900460ff16151503610424576040517f08c379a000000000000000000000000000000000000000000000000000000000815260040161041b90611bd0565b60405180910390fd5b600380549050811061046b576040517f08c379a000000000000000000000000000000000000000000000000000000000815260040161046290611c3c565b60405180910390fd5b80600460003373ffffffffffffffffffffffffffffffffffffffff1673ffffffffffffffffffffffffffffffffffffffff168152602001908152602001600020600101819055506001600460003373ffffffffffffffffffffffffffffffffffffffff1673ffffffffffffffffffffffffffffffffffffffff16815260200190815260200160002060000160016101000a81548160ff0219169083151502179055506003818154811061052157610520611c5c565b5b9060005260206000209060020201600101600081548092919061054390611cba565b91905055507f4d99b957a2bc29a30ebd96a7be8e68fe50a3c701db28a91436490b7d53870ca43382604051610579929190611d02565b60405180910390a150565b600460003373ffffffffffffffffffffffffffffffffffffffff1673ffffffffffffffffffffffffffffffffffffffff16815260200190815260200160002060000160009054906101000a900460ff16610613576040517f08c379a000000000000000000000000000000000000000000000000000000000815260040161060a90611ad2565b60405180910390fd5b6001600581111561062757610626611889565b5b600260009054906101000a900460ff16600581111561064957610648611889565b5b14610689576040517f08c379a000000000000000000000000000000000000000000000000000000000815260040161068090611d77565b60405180910390fd5b60405160200161069890611dbd565b6040516020818303038152906040528051906020012082826040516020016106c1929190611e19565b6040516020818303038152906040528051906020012003610717576040517f08c379a000000000000000000000000000000000000000000000000000000000815260040161070e90611eaf565b60405180910390fd5b61071f61150f565b82828080601f016020809104026020016040519081016040528093929190818152602001838380828437600081840152601f19601f820116905080830192505050505050508160000181905250600381908060018154018082558091505060019003906000526020600020906002020160009091909190915060008201518160000190816107ad919061210a565b506020820151816001015550507f92e393e9b54e2f801d3ea4beb0c5e71a21cc34a5d34b77d0fb8a3aa1650dc18f60016003805490506107ed91906121dc565b6040516107fa9190611989565b60405180910390a1505050565b61080f6113c5565b600080600090505b60038054905081101561088d576003828154811061083857610837611c5c565b5b9060005260206000209060020201600101546003828154811061085e5761085d611c5c565b5b906000526020600020906002020160010154111561087a578091505b808061088590611cba565b915050610817565b50806001819055506005600260006101000a81548160ff021916908360058111156108bb576108ba611889565b5b02179055507f0a97a4ee45751e2abf3e4fc8946939630b11b371ea8ae39ccdc3056e98f5cc3f600460056040516108f3929190612210565b60405180910390a150565b6060600460003373ffffffffffffffffffffffffffffffffffffffff1673ffffffffffffffffffffffffffffffffffffffff16815260200190815260200160002060000160009054906101000a900460ff1661098f576040517f08c379a000000000000000000000000000000000000000000000000000000000815260040161098690611ad2565b60405180910390fd5b6003805480602002602001604051908101604052809291908181526020016000905b82821015610a7f57838290600052602060002090600202016040518060400160405290816000820180546109e490611f2d565b80601f0160208091040260200160405190810160405280929190818152602001828054610a1090611f2d565b8015610a5d5780601f10610a3257610100808354040283529160200191610a5d565b820191906000526020600020905b815481529060010190602001808311610a4057829003601f168201915b50505050508152602001600182015481525050815260200190600101906109b1565b50505050905090565b610a906113c5565b610a9a6000611443565b565b60008060009054906101000a900473ffffffffffffffffffffffffffffffffffffffff16905090565b600260009054906101000a900460ff1681565b610ae061150f565b600460003373ffffffffffffffffffffffffffffffffffffffff1673ffffffffffffffffffffffffffffffffffffffff16815260200190815260200160002060000160009054906101000a900460ff16610b6f576040517f08c379a0000000000000000000000000000000000000000000000000000000008152600401610b6690611ad2565b60405180910390fd5b60038281548110610b8357610b82611c5c565b5b9060005260206000209060020201604051806040016040529081600082018054610bac90611f2d565b80601f0160208091040260200160405190810160405280929190818152602001828054610bd890611f2d565b8015610c255780601f10610bfa57610100808354040283529160200191610c25565b820191906000526020600020905b815481529060010190602001808311610c0857829003601f168201915b505050505081526020016001820154815250509050919050565b610c476113c5565b60036005811115610c5b57610c5a611889565b5b600260009054906101000a900460ff166005811115610c7d57610c7c611889565b5b14610cbd576040517f08c379a0000000000000000000000000000000000000000000000000000000008152600401610cb490611b64565b60405180910390fd5b6004600260006101000a81548160ff02191690836005811115610ce357610ce2611889565b5b02179055507f0a97a4ee45751e2abf3e4fc8946939630b11b371ea8ae39ccdc3056e98f5cc3f60036004604051610d1b929190612210565b60405180910390a1565b60015481565b610d336113c5565b60006005811115610d4757610d46611889565b5b600260009054906101000a900460ff166005811115610d6957610d68611889565b5b14610da9576040517f08c379a0000000000000000000000000000000000000000000000000000000008152600401610da0906122ab565b60405180910390fd5b6001600260006101000a81548160ff02191690836005811115610dcf57610dce611889565b5b0217905550610ddc61150f565b6040518060400160405280600781526020017f47454e4553495300000000000000000000000000000000000000000000000000815250816000018190525060038190806001815401808255809150506001900390600052602060002090600202016000909190919091506000820151816000019081610e5b919061210a565b506020820151816001015550507f0a97a4ee45751e2abf3e4fc8946939630b11b371ea8ae39ccdc3056e98f5cc3f60006001604051610e9b929190612210565b60405180910390a150565b610eae6113c5565b60016005811115610ec257610ec1611889565b5b600260009054906101000a900460ff166005811115610ee457610ee3611889565b5b14610f24576040517f08c379a0000000000000000000000000000000000000000000000000000000008152600401610f1b9061233d565b60405180910390fd5b60028060006101000a81548160ff02191690836005811115610f4957610f48611889565b5b02179055507f0a97a4ee45751e2abf3e4fc8946939630b11b371ea8ae39ccdc3056e98f5cc3f60016002604051610f81929190612210565b60405180910390a1565b610f93611529565b600460003373ffffffffffffffffffffffffffffffffffffffff1673ffffffffffffffffffffffffffffffffffffffff16815260200190815260200160002060000160009054906101000a900460ff16611022576040517f08c379a000000000000000000000000000000000000000000000000000000000815260040161101990611ad2565b60405180910390fd5b600460008373ffffffffffffffffffffffffffffffffffffffff1673ffffffffffffffffffffffffffffffffffffffff1681526020019081526020016000206040518060600160405290816000820160009054906101000a900460ff161515151581526020016000820160019054906101000a900460ff161515151581526020016001820154815250509050919050565b6110bb6113c5565b600260058111156110cf576110ce611889565b5b600260009054906101000a900460ff1660058111156110f1576110f0611889565b5b14611131576040517f08c379a0000000000000000000000000000000000000000000000000000000008152600401611128906123cf565b60405180910390fd5b6003600260006101000a81548160ff0219169083600581111561115757611156611889565b5b02179055507f0a97a4ee45751e2abf3e4fc8946939630b11b371ea8ae39ccdc3056e98f5cc3f6002600360405161118f929190612210565b60405180910390a1565b6111a16113c5565b600073ffffffffffffffffffffffffffffffffffffffff168173ffffffffffffffffffffffffffffffffffffffff1603611210576040517f08c379a000000000000000000000000000000000000000000000000000000000815260040161120790612461565b60405180910390fd5b61121981611443565b50565b6112246113c5565b6000600581111561123857611237611889565b5b600260009054906101000a900460ff16600581111561125a57611259611889565b5b1461129a576040517f08c379a0000000000000000000000000000000000000000000000000000000008152600401611291906124f3565b60405180910390fd5b60011515600460008373ffffffffffffffffffffffffffffffffffffffff1673ffffffffffffffffffffffffffffffffffffffff16815260200190815260200160002060000160009054906101000a900460ff16151503611330576040517f08c379a00000000000000000000000000000000000000000000000000000000081526004016113279061255f565b60405180910390fd5b6001600460008373ffffffffffffffffffffffffffffffffffffffff1673ffffffffffffffffffffffffffffffffffffffff16815260200190815260200160002060000160006101000a81548160ff0219169083151502179055507fb6be2187d059cc2a55fe29e0e503b566e1e0f8c8780096e185429350acffd3dd816040516113ba919061186e565b60405180910390a150565b6113cd611507565b73ffffffffffffffffffffffffffffffffffffffff166113eb610a9c565b73ffffffffffffffffffffffffffffffffffffffff1614611441576040517f08c379a0000000000000000000000000000000000000000000000000000000008152600401611438906125cb565b60405180910390fd5b565b60008060009054906101000a900473ffffffffffffffffffffffffffffffffffffffff169050816000806101000a81548173ffffffffffffffffffffffffffffffffffffffff021916908373ffffffffffffffffffffffffffffffffffffffff1602179055508173ffffffffffffffffffffffffffffffffffffffff168173ffffffffffffffffffffffffffffffffffffffff167f8be0079c531659141344cd1fd0a4f28419497f9722a3daafe3b4186f6b6457e060405160405180910390a35050565b600033905090565b604051806040016040528060608152602001600081525090565b6040518060600160405280600015158152602001600015158152602001600081525090565b600080fd5b600080fd5b6000819050919050565b61156b81611558565b811461157657600080fd5b50565b60008135905061158881611562565b92915050565b6000602082840312156115a4576115a361154e565b5b60006115b284828501611579565b91505092915050565b600080fd5b600080fd5b600080fd5b60008083601f8401126115e0576115df6115bb565b5b8235905067ffffffffffffffff8111156115fd576115fc6115c0565b5b602083019150836001820283011115611619576116186115c5565b5b9250929050565b600080602083850312156116375761163661154e565b5b600083013567ffffffffffffffff81111561165557611654611553565b5b611661858286016115ca565b92509250509250929050565b600081519050919050565b600082825260208201905092915050565b6000819050602082019050919050565b600081519050919050565b600082825260208201905092915050565b60005b838110156116d35780820151818401526020810190506116b8565b60008484015250505050565b6000601f19601f8301169050919050565b60006116fb82611699565b61170581856116a4565b93506117158185602086016116b5565b61171e816116df565b840191505092915050565b61173281611558565b82525050565b6000604083016000830151848203600086015261175582826116f0565b915050602083015161176a6020860182611729565b508091505092915050565b60006117818383611738565b905092915050565b6000602082019050919050565b60006117a18261166d565b6117ab8185611678565b9350836020820285016117bd85611689565b8060005b858110156117f957848403895281516117da8582611775565b94506117e583611789565b925060208a019950506001810190506117c1565b50829750879550505050505092915050565b600060208201905081810360008301526118258184611796565b905092915050565b600073ffffffffffffffffffffffffffffffffffffffff82169050919050565b60006118588261182d565b9050919050565b6118688161184d565b82525050565b6000602082019050611883600083018461185f565b92915050565b7f4e487b7100000000000000000000000000000000000000000000000000000000600052602160045260246000fd5b600681106118c9576118c8611889565b5b50565b60008190506118da826118b8565b919050565b60006118ea826118cc565b9050919050565b6118fa816118df565b82525050565b600060208201905061191560008301846118f1565b92915050565b6000604083016000830151848203600086015261193882826116f0565b915050602083015161194d6020860182611729565b508091505092915050565b60006020820190508181036000830152611972818461191b565b905092915050565b61198381611558565b82525050565b600060208201905061199e600083018461197a565b92915050565b6119ad8161184d565b81146119b857600080fd5b50565b6000813590506119ca816119a4565b92915050565b6000602082840312156119e6576119e561154e565b5b60006119f4848285016119bb565b91505092915050565b60008115159050919050565b611a12816119fd565b82525050565b606082016000820151611a2e6000850182611a09565b506020820151611a416020850182611a09565b506040820151611a546040850182611729565b50505050565b6000606082019050611a6f6000830184611a18565b92915050565b600082825260208201905092915050565b7f596f75277265206e6f74206120766f7465720000000000000000000000000000600082015250565b6000611abc601283611a75565b9150611ac782611a86565b602082019050919050565b60006020820190508181036000830152611aeb81611aaf565b9050919050565b7f566f74696e672073657373696f6e20686176656e74207374617274656420796560008201527f7400000000000000000000000000000000000000000000000000000000000000602082015250565b6000611b4e602183611a75565b9150611b5982611af2565b604082019050919050565b60006020820190508181036000830152611b7d81611b41565b9050919050565b7f596f75206861766520616c726561647920766f74656400000000000000000000600082015250565b6000611bba601683611a75565b9150611bc582611b84565b602082019050919050565b60006020820190508181036000830152611be981611bad565b9050919050565b7f50726f706f73616c206e6f7420666f756e640000000000000000000000000000600082015250565b6000611c26601283611a75565b9150611c3182611bf0565b602082019050919050565b60006020820190508181036000830152611c5581611c19565b9050919050565b7f4e487b7100000000000000000000000000000000000000000000000000000000600052603260045260246000fd5b7f4e487b7100000000000000000000000000000000000000000000000000000000600052601160045260246000fd5b6000611cc582611558565b91507fffffffffffffffffffffffffffffffffffffffffffffffffffffffffffffffff8203611cf757611cf6611c8b565b5b600182019050919050565b6000604082019050611d17600083018561185f565b611d24602083018461197a565b9392505050565b7f50726f706f73616c7320617265206e6f7420616c6c6f77656420796574000000600082015250565b6000611d61601d83611a75565b9150611d6c82611d2b565b602082019050919050565b60006020820190508181036000830152611d9081611d54565b9050919050565b50565b6000611da7600083611a75565b9150611db282611d97565b600082019050919050565b60006020820190508181036000830152611dd681611d9a565b9050919050565b82818337600083830152505050565b6000611df88385611a75565b9350611e05838584611ddd565b611e0e836116df565b840190509392505050565b60006020820190508181036000830152611e34818486611dec565b90509392505050565b7f566f7573206e6520706f7576657a20706173206e65207269656e2070726f706f60008201527f7365720000000000000000000000000000000000000000000000000000000000602082015250565b6000611e99602383611a75565b9150611ea482611e3d565b604082019050919050565b60006020820190508181036000830152611ec881611e8c565b9050919050565b7f4e487b7100000000000000000000000000000000000000000000000000000000600052604160045260246000fd5b7f4e487b7100000000000000000000000000000000000000000000000000000000600052602260045260246000fd5b60006002820490506001821680611f4557607f821691505b602082108103611f5857611f57611efe565b5b50919050565b60008190508160005260206000209050919050565b60006020601f8301049050919050565b600082821b905092915050565b600060088302611fc07fffffffffffffffffffffffffffffffffffffffffffffffffffffffffffffffff82611f83565b611fca8683611f83565b95508019841693508086168417925050509392505050565b6000819050919050565b6000612007612002611ffd84611558565b611fe2565b611558565b9050919050565b6000819050919050565b61202183611fec565b61203561202d8261200e565b848454611f90565b825550505050565b600090565b61204a61203d565b612055818484612018565b505050565b5b818110156120795761206e600082612042565b60018101905061205b565b5050565b601f8211156120be5761208f81611f5e565b61209884611f73565b810160208510156120a7578190505b6120bb6120b385611f73565b83018261205a565b50505b505050565b600082821c905092915050565b60006120e1600019846008026120c3565b1980831691505092915050565b60006120fa83836120d0565b9150826002028217905092915050565b61211382611699565b67ffffffffffffffff81111561212c5761212b611ecf565b5b6121368254611f2d565b61214182828561207d565b600060209050601f8311600181146121745760008415612162578287015190505b61216c85826120ee565b8655506121d4565b601f19841661218286611f5e565b60005b828110156121aa57848901518255600182019150602085019450602081019050612185565b868310156121c757848901516121c3601f8916826120d0565b8355505b6001600288020188555050505b505050505050565b60006121e782611558565b91506121f283611558565b925082820390508181111561220a57612209611c8b565b5b92915050565b600060408201905061222560008301856118f1565b61223260208301846118f1565b9392505050565b7f5265676973746572696e672070726f706f73616c732063616e7420626520737460008201527f6172746564206e6f770000000000000000000000000000000000000000000000602082015250565b6000612295602983611a75565b91506122a082612239565b604082019050919050565b600060208201905081810360008301526122c481612288565b9050919050565b7f5265676973746572696e672070726f706f73616c7320686176656e742073746160008201527f7274656420796574000000000000000000000000000000000000000000000000602082015250565b6000612327602883611a75565b9150612332826122cb565b604082019050919050565b600060208201905081810360008301526123568161231a565b9050919050565b7f5265676973746572696e672070726f706f73616c73207068617365206973206e60008201527f6f742066696e6973686564000000000000000000000000000000000000000000602082015250565b60006123b9602b83611a75565b91506123c48261235d565b604082019050919050565b600060208201905081810360008301526123e8816123ac565b9050919050565b7f4f776e61626c653a206e6577206f776e657220697320746865207a65726f206160008201527f6464726573730000000000000000000000000000000000000000000000000000602082015250565b600061244b602683611a75565b9150612456826123ef565b604082019050919050565b6000602082019050818103600083015261247a8161243e565b9050919050565b7f566f7465727320726567697374726174696f6e206973206e6f74206f70656e2060008201527f7965740000000000000000000000000000000000000000000000000000000000602082015250565b60006124dd602383611a75565b91506124e882612481565b604082019050919050565b6000602082019050818103600083015261250c816124d0565b9050919050565b7f416c726561647920726567697374657265640000000000000000000000000000600082015250565b6000612549601283611a75565b915061255482612513565b602082019050919050565b600060208201905081810360008301526125788161253c565b9050919050565b7f4f776e61626c653a2063616c6c6572206973206e6f7420746865206f776e6572600082015250565b60006125b5602083611a75565b91506125c08261257f565b602082019050919050565b600060208201905081810360008301526125e4816125a8565b905091905056fea264697066735822122034942fc0671c7c7f8cbda79c8615413e290412dcb33d2ed985ade9ba192d980064736f6c63430008110033",
  "linkReferences": {},
  "deployedLinkReferences": {}
}